{
  "_format": "hh-sol-artifact-1",
  "contractName": "SecureVault",
  "sourceName": "contracts/SecureVault.sol",
  "abi": [
    {
      "inputs": [],
      "stateMutability": "nonpayable",
      "type": "constructor"
    },
    {
      "inputs": [
        {
          "internalType": "address",
          "name": "target",
          "type": "address"
        }
      ],
      "name": "AddressEmptyCode",
      "type": "error"
    },
    {
      "inputs": [],
      "name": "ECDSAInvalidSignature",
      "type": "error"
    },
    {
      "inputs": [
        {
          "internalType": "uint256",
          "name": "length",
          "type": "uint256"
        }
      ],
      "name": "ECDSAInvalidSignatureLength",
      "type": "error"
    },
    {
      "inputs": [
        {
          "internalType": "bytes32",
          "name": "s",
          "type": "bytes32"
        }
      ],
      "name": "ECDSAInvalidSignatureS",
      "type": "error"
    },
    {
      "inputs": [
        {
          "internalType": "address",
          "name": "implementation",
          "type": "address"
        }
      ],
      "name": "ERC1967InvalidImplementation",
      "type": "error"
    },
    {
      "inputs": [],
      "name": "ERC1967NonPayable",
      "type": "error"
    },
    {
      "inputs": [],
      "name": "FailedCall",
      "type": "error"
    },
    {
      "inputs": [],
      "name": "InvalidInitialization",
      "type": "error"
    },
    {
      "inputs": [],
      "name": "NotInitializing",
      "type": "error"
    },
    {
      "inputs": [
        {
          "internalType": "address",
          "name": "owner",
          "type": "address"
        }
      ],
      "name": "OwnableInvalidOwner",
      "type": "error"
    },
    {
      "inputs": [
        {
          "internalType": "address",
          "name": "account",
          "type": "address"
        }
      ],
      "name": "OwnableUnauthorizedAccount",
      "type": "error"
    },
    {
      "inputs": [
        {
          "internalType": "address",
          "name": "token",
          "type": "address"
        }
      ],
      "name": "SafeERC20FailedOperation",
      "type": "error"
    },
    {
      "inputs": [],
      "name": "UUPSUnauthorizedCallContext",
      "type": "error"
    },
    {
      "inputs": [
        {
          "internalType": "bytes32",
          "name": "slot",
          "type": "bytes32"
        }
      ],
      "name": "UUPSUnsupportedProxiableUUID",
      "type": "error"
    },
    {
      "anonymous": false,
      "inputs": [
        {
          "indexed": true,
          "internalType": "address",
          "name": "sender",
          "type": "address"
        },
        {
          "indexed": false,
          "internalType": "uint256",
          "name": "amount",
          "type": "uint256"
        }
      ],
      "name": "Deposited",
      "type": "event"
    },
    {
      "anonymous": false,
      "inputs": [],
      "name": "EIP712DomainChanged",
      "type": "event"
    },
    {
      "anonymous": false,
      "inputs": [
        {
          "indexed": false,
          "internalType": "uint64",
          "name": "version",
          "type": "uint64"
        }
      ],
      "name": "Initialized",
      "type": "event"
    },
    {
      "anonymous": false,
      "inputs": [
        {
          "indexed": true,
          "internalType": "address",
          "name": "previousOwner",
          "type": "address"
        },
        {
          "indexed": true,
          "internalType": "address",
          "name": "newOwner",
          "type": "address"
        }
      ],
      "name": "OwnershipTransferred",
      "type": "event"
    },
    {
      "anonymous": false,
      "inputs": [
        {
          "indexed": true,
          "internalType": "address",
          "name": "initiator",
          "type": "address"
        },
        {
          "indexed": false,
          "internalType": "uint256",
          "name": "endTime",
          "type": "uint256"
        }
      ],
      "name": "Quarantined",
      "type": "event"
    },
    {
      "anonymous": false,
      "inputs": [
        {
          "indexed": true,
          "internalType": "address",
          "name": "recipient",
          "type": "address"
        },
        {
          "indexed": false,
          "internalType": "uint256",
          "name": "amount",
          "type": "uint256"
        }
      ],
      "name": "Refunded",
      "type": "event"
    },
    {
      "anonymous": false,
      "inputs": [
        {
          "indexed": true,
          "internalType": "bytes32",
          "name": "role",
          "type": "bytes32"
        },
        {
          "indexed": true,
          "internalType": "address",
          "name": "account",
          "type": "address"
        }
      ],
      "name": "RoleGranted",
      "type": "event"
    },
    {
      "anonymous": false,
      "inputs": [
        {
          "indexed": true,
          "internalType": "bytes32",
          "name": "role",
          "type": "bytes32"
        },
        {
          "indexed": true,
          "internalType": "address",
          "name": "account",
          "type": "address"
        }
      ],
      "name": "RoleRevoked",
      "type": "event"
    },
    {
      "anonymous": false,
      "inputs": [
        {
          "indexed": false,
          "internalType": "bytes32",
          "name": "secret",
          "type": "bytes32"
        }
      ],
      "name": "SecretRevealed",
      "type": "event"
    },
    {
      "anonymous": false,
      "inputs": [
        {
          "indexed": true,
          "internalType": "enum SecureVault.State",
          "name": "from",
          "type": "uint8"
        },
        {
          "indexed": true,
          "internalType": "enum SecureVault.State",
          "name": "to",
          "type": "uint8"
        }
      ],
      "name": "StateChanged",
      "type": "event"
    },
    {
      "anonymous": false,
      "inputs": [
        {
          "indexed": true,
          "internalType": "address",
          "name": "implementation",
          "type": "address"
        },
        {
          "indexed": false,
          "internalType": "uint256",
          "name": "releaseTime",
          "type": "uint256"
        }
      ],
      "name": "UpgradeScheduled",
      "type": "event"
    },
    {
      "anonymous": false,
      "inputs": [
        {
          "indexed": true,
          "internalType": "address",
          "name": "implementation",
          "type": "address"
        }
      ],
      "name": "Upgraded",
      "type": "event"
    },
    {
      "inputs": [],
      "name": "COUNTERPARTY_ROLE",
      "outputs": [
        {
          "internalType": "bytes32",
          "name": "",
          "type": "bytes32"
        }
      ],
      "stateMutability": "view",
      "type": "function"
    },
    {
      "inputs": [],
      "name": "GUARDIAN_ROLE",
      "outputs": [
        {
          "internalType": "bytes32",
          "name": "",
          "type": "bytes32"
        }
      ],
      "stateMutability": "view",
      "type": "function"
    },
    {
      "inputs": [],
      "name": "QUARANTINE_STAKE",
      "outputs": [
        {
          "internalType": "uint256",
          "name": "",
          "type": "uint256"
        }
      ],
      "stateMutability": "view",
      "type": "function"
    },
    {
      "inputs": [],
      "name": "RECOVERY_TYPEHASH",
      "outputs": [
        {
          "internalType": "bytes32",
          "name": "",
          "type": "bytes32"
        }
      ],
      "stateMutability": "view",
      "type": "function"
    },
    {
      "inputs": [],
      "name": "UPGRADE_DELAY",
      "outputs": [
        {
          "internalType": "uint256",
          "name": "",
          "type": "uint256"
        }
      ],
      "stateMutability": "view",
      "type": "function"
    },
    {
      "inputs": [],
      "name": "UPGRADE_INTERFACE_VERSION",
      "outputs": [
        {
          "internalType": "string",
          "name": "",
          "type": "string"
        }
      ],
      "stateMutability": "view",
      "type": "function"
    },
    {
      "inputs": [],
      "name": "assertFundIntegrity",
      "outputs": [],
      "stateMutability": "view",
      "type": "function"
    },
    {
      "inputs": [],
      "name": "commitmentHash",
      "outputs": [
        {
          "internalType": "bytes32",
          "name": "",
          "type": "bytes32"
        }
      ],
      "stateMutability": "view",
      "type": "function"
    },
    {
      "inputs": [],
      "name": "counterparty",
      "outputs": [
        {
          "internalType": "address",
          "name": "",
          "type": "address"
        }
      ],
      "stateMutability": "view",
      "type": "function"
    },
    {
      "inputs": [],
      "name": "currentState",
      "outputs": [
        {
          "internalType": "enum SecureVault.State",
          "name": "",
          "type": "uint8"
        }
      ],
      "stateMutability": "view",
      "type": "function"
    },
    {
      "inputs": [],
      "name": "deposit",
      "outputs": [],
      "stateMutability": "payable",
      "type": "function"
    },
    {
      "inputs": [
        {
          "internalType": "address",
          "name": "token",
          "type": "address"
        },
        {
          "internalType": "uint256",
          "name": "amount",
          "type": "uint256"
        }
      ],
      "name": "depositTokens",
      "outputs": [],
      "stateMutability": "nonpayable",
      "type": "function"
    },
    {
      "inputs": [],
      "name": "eip712Domain",
      "outputs": [
        {
          "internalType": "bytes1",
          "name": "fields",
          "type": "bytes1"
        },
        {
          "internalType": "string",
          "name": "name",
          "type": "string"
        },
        {
          "internalType": "string",
          "name": "version",
          "type": "string"
        },
        {
          "internalType": "uint256",
          "name": "chainId",
          "type": "uint256"
        },
        {
          "internalType": "address",
          "name": "verifyingContract",
          "type": "address"
        },
        {
          "internalType": "bytes32",
          "name": "salt",
          "type": "bytes32"
        },
        {
          "internalType": "uint256[]",
          "name": "extensions",
          "type": "uint256[]"
        }
      ],
      "stateMutability": "view",
      "type": "function"
    },
    {
      "inputs": [],
      "name": "execute",
      "outputs": [],
      "stateMutability": "nonpayable",
      "type": "function"
    },
    {
      "inputs": [],
      "name": "guardian",
      "outputs": [
        {
          "internalType": "address",
          "name": "",
          "type": "address"
        }
      ],
      "stateMutability": "view",
      "type": "function"
    },
    {
      "inputs": [
        {
          "internalType": "bytes32",
          "name": "role",
          "type": "bytes32"
        },
        {
          "internalType": "address",
          "name": "account",
          "type": "address"
        }
      ],
      "name": "hasRole",
      "outputs": [
        {
          "internalType": "bool",
          "name": "",
          "type": "bool"
        }
      ],
      "stateMutability": "view",
      "type": "function"
    },
    {
      "inputs": [
        {
          "internalType": "address",
          "name": "_owner",
          "type": "address"
        },
        {
          "internalType": "address",
          "name": "_guardian",
          "type": "address"
        },
        {
          "internalType": "address",
          "name": "_counterparty",
          "type": "address"
        },
        {
          "internalType": "bytes32",
          "name": "_commitmentHash",
          "type": "bytes32"
        },
        {
          "internalType": "uint256",
          "name": "_lockDuration",
          "type": "uint256"
        }
      ],
      "name": "initialize",
      "outputs": [],
      "stateMutability": "nonpayable",
      "type": "function"
    },
    {
      "inputs": [
        {
          "internalType": "bytes32",
          "name": "secret",
          "type": "bytes32"
        }
      ],
      "name": "initiateExecution",
      "outputs": [],
      "stateMutability": "nonpayable",
      "type": "function"
    },
    {
      "inputs": [],
      "name": "initiateQuarantine",
      "outputs": [],
      "stateMutability": "payable",
      "type": "function"
    },
    {
      "inputs": [],
      "name": "lock",
      "outputs": [],
      "stateMutability": "nonpayable",
      "type": "function"
    },
    {
      "inputs": [],
      "name": "lockDuration",
      "outputs": [
        {
          "internalType": "uint256",
          "name": "",
          "type": "uint256"
        }
      ],
      "stateMutability": "view",
      "type": "function"
    },
    {
      "inputs": [],
      "name": "lockTimestamp",
      "outputs": [
        {
          "internalType": "uint256",
          "name": "",
          "type": "uint256"
        }
      ],
      "stateMutability": "view",
      "type": "function"
    },
    {
      "inputs": [],
      "name": "nonce",
      "outputs": [
        {
          "internalType": "uint256",
          "name": "",
          "type": "uint256"
        }
      ],
      "stateMutability": "view",
      "type": "function"
    },
    {
      "inputs": [
        {
          "internalType": "address",
          "name": "",
          "type": "address"
        },
        {
          "internalType": "address",
          "name": "",
          "type": "address"
        },
        {
          "internalType": "uint256",
          "name": "",
          "type": "uint256"
        },
        {
          "internalType": "bytes",
          "name": "",
          "type": "bytes"
        }
      ],
      "name": "onERC721Received",
      "outputs": [
        {
          "internalType": "bytes4",
          "name": "",
          "type": "bytes4"
        }
      ],
      "stateMutability": "pure",
      "type": "function"
    },
    {
      "inputs": [],
      "name": "owner",
      "outputs": [
        {
          "internalType": "address",
          "name": "",
          "type": "address"
        }
      ],
      "stateMutability": "view",
      "type": "function"
    },
    {
      "inputs": [],
      "name": "pendingImplementation",
      "outputs": [
        {
          "internalType": "address",
          "name": "",
          "type": "address"
        }
      ],
      "stateMutability": "view",
      "type": "function"
    },
    {
      "inputs": [],
      "name": "proxiableUUID",
      "outputs": [
        {
          "internalType": "bytes32",
          "name": "",
          "type": "bytes32"
        }
      ],
      "stateMutability": "view",
      "type": "function"
    },
    {
      "inputs": [],
      "name": "quarantineEndTime",
      "outputs": [
        {
          "internalType": "uint256",
          "name": "",
          "type": "uint256"
        }
      ],
      "stateMutability": "view",
      "type": "function"
    },
    {
      "inputs": [],
      "name": "quarantineInitiator",
      "outputs": [
        {
          "internalType": "address",
          "name": "",
          "type": "address"
        }
      ],
      "stateMutability": "view",
      "type": "function"
    },
    {
      "inputs": [
        {
          "internalType": "address",
          "name": "newOwner",
          "type": "address"
        },
        {
          "internalType": "uint256",
          "name": "deadline",
          "type": "uint256"
        },
        {
          "internalType": "bytes",
          "name": "ownerSignature",
          "type": "bytes"
        },
        {
          "internalType": "bytes",
          "name": "guardianSignature",
          "type": "bytes"
        }
      ],
      "name": "recoverAccount",
      "outputs": [],
      "stateMutability": "nonpayable",
      "type": "function"
    },
    {
      "inputs": [],
      "name": "refund",
      "outputs": [],
      "stateMutability": "nonpayable",
      "type": "function"
    },
    {
      "inputs": [],
      "name": "refundDelay",
      "outputs": [
        {
          "internalType": "uint256",
          "name": "",
          "type": "uint256"
        }
      ],
      "stateMutability": "view",
      "type": "function"
    },
    {
      "inputs": [],
      "name": "renounceOwnership",
      "outputs": [],
      "stateMutability": "nonpayable",
      "type": "function"
    },
    {
      "inputs": [
        {
          "internalType": "address",
          "name": "newImplementation",
          "type": "address"
        }
      ],
      "name": "scheduleUpgrade",
      "outputs": [],
      "stateMutability": "nonpayable",
      "type": "function"
    },
    {
      "inputs": [
        {
          "internalType": "address",
          "name": "newOwner",
          "type": "address"
        }
      ],
      "name": "transferOwnership",
      "outputs": [],
      "stateMutability": "nonpayable",
      "type": "function"
    },
    {
      "inputs": [],
      "name": "upgradeTimelock",
      "outputs": [
        {
          "internalType": "uint256",
          "name": "",
          "type": "uint256"
        }
      ],
      "stateMutability": "view",
      "type": "function"
    },
    {
      "inputs": [
        {
          "internalType": "address",
          "name": "newImplementation",
          "type": "address"
        },
        {
          "internalType": "bytes",
          "name": "data",
          "type": "bytes"
        }
      ],
      "name": "upgradeToAndCall",
      "outputs": [],
      "stateMutability": "payable",
      "type": "function"
    },
    {
      "stateMutability": "payable",
      "type": "receive"
    }
  ],
  "bytecode": "0x60a06040523060805234801562000014575f80fd5b506200001f62000025565b620000d9565b7ff0c57e16840df040f15088dc2f81fe391c3923bec73e23a9662efc9c229c6a00805468010000000000000000900460ff1615620000765760405163f92ee8a960e01b815260040160405180910390fd5b80546001600160401b0390811614620000d65780546001600160401b0319166001600160401b0390811782556040519081527fc7f505b2f371ae2175ee4913f4499e1f2633a7b5936321eed1cdaeb6115181d29060200160405180910390a15b50565b60805161278c620001005f395f81816116700152818161169901526117e6015261278c5ff3fe608060405260043610610215575f3560e01c80638414bb401161011e578063ad3cb1cc116100a8578063dd2bf31b1161006d578063dd2bf31b14610676578063f2fde38b146106a9578063f6098ce8146106c8578063f83d08ba146106dd578063fc91fd31146106f1575f80fd5b8063ad3cb1cc146105e8578063affed0e014610625578063b544bf831461063a578063c3df65461461064f578063d0e30db01461066e575f80fd5b80639190b994116100ee5780639190b9941461052957806391d1485414610548578063947f5460146105775780639819adb314610596578063a54efea5146105b5575f80fd5b80638414bb40146104bf57806384b0196e146104d95780638c879fb9146105005780638da5cb5b14610515575f80fd5b806347fe8b1d1161019f578063614619541161016f578063614619541461045157806366168bd714610465578063715018a614610484578063785a1b2d1461049857806379f28e57146104b7575f80fd5b806347fe8b1d146104005780634f1ef2861461041657806352d1902d14610429578063590e1ae31461043d575f80fd5b806324ea54f4116101e557806324ea54f41461034d578063396f7b23146103805780633a7f06b4146103b75780633e602b4c146103cc578063452a9320146103e1575f80fd5b806304554443146102955780630c3f6acf146102bd5780630c80447a146102ea578063150b7a0214610309575f80fd5b3661029157662386f26fc1000034148015610231575042600a54105b1561028f57600b80546001600160a01b031916331790556102544261a8c06120de565b600a81905560405190815233907f44ea6442f4478b031601846160c21470501ea4455f8ffaef50f4c5d091fc9d4c9060200160405180910390a25b005b5f80fd5b3480156102a0575f80fd5b506102aa60075481565b6040519081526020015b60405180910390f35b3480156102c8575f80fd5b506003546102dd90600160a01b900460ff1681565b6040516102b49190612105565b3480156102f5575f80fd5b5061028f610304366004612146565b610705565b348015610314575f80fd5b506103346103233660046121ab565b630a85bd0160e11b95945050505050565b6040516001600160e01b031990911681526020016102b4565b348015610358575f80fd5b506102aa7f55435dd261a4b9b3364963f7738a7a662ad9c84396d64be3365284bb7f0a504181565b34801561038b575f80fd5b5060035461039f906001600160a01b031681565b6040516001600160a01b0390911681526020016102b4565b3480156103c2575f80fd5b506102aa600a5481565b3480156103d7575f80fd5b506102aa60095481565b3480156103ec575f80fd5b5060055461039f906001600160a01b031681565b34801561040b575f80fd5b506102aa6202a30081565b61028f610424366004612229565b610719565b348015610434575f80fd5b506102aa610738565b348015610448575f80fd5b5061028f610753565b34801561045c575f80fd5b5061028f6109bf565b348015610470575f80fd5b5061028f61047f3660046122e5565b610b6f565b34801561048f575f80fd5b5061028f610ce0565b3480156104a3575f80fd5b5061028f6104b236600461230d565b610cf3565b61028f610f22565b3480156104ca575f80fd5b506102aa662386f26fc1000081565b3480156104e4575f80fd5b506104ed61100f565b6040516102b497969594939291906123d4565b34801561050b575f80fd5b506102aa60025481565b348015610520575f80fd5b5061039f611051565b348015610534575f80fd5b50600b5461039f906001600160a01b031681565b348015610553575f80fd5b5061056761056236600461246b565b61107f565b60405190151581526020016102b4565b348015610582575f80fd5b5061028f610591366004612495565b6110ab565b3480156105a1575f80fd5b5061028f6105b03660046124ac565b611205565b3480156105c0575f80fd5b506102aa7f8395ada023be9e2c3c970f93fc5f0fa42f5103355a7e14885e0e3f79beea3fe481565b3480156105f3575f80fd5b50610618604051806040016040528060058152602001640352e302e360dc1b81525081565b6040516102b491906124fd565b348015610630575f80fd5b506102aa600c5481565b348015610645575f80fd5b506102aa60085481565b34801561065a575f80fd5b5060045461039f906001600160a01b031681565b61028f6113e9565b348015610681575f80fd5b506102aa7fb471be090acf24b5a067bff5ab5697632de177616b7ebfab8b478d265ec5f35581565b3480156106b4575f80fd5b5061028f6106c3366004612146565b6114d0565b3480156106d3575f80fd5b506102aa60065481565b3480156106e8575f80fd5b5061028f61150a565b3480156106fc575f80fd5b5061028f611570565b61070d6115cc565b610716816115fe565b50565b610721611665565b61072a82611709565b610734828261171a565b5050565b5f6107416117db565b505f8051602061271783398151915290565b5f5460ff161561077e5760405162461bcd60e51b81526004016107759061250f565b60405180910390fd5b5f805460ff19166001179055610792611051565b6001600160a01b0316336001600160a01b0316146107df5760405162461bcd60e51b815260206004820152600a60248201526927b7363c9037bbb732b960b11b6044820152606401610775565b6001600354600160a01b900460ff1660058111156107ff576107ff6120f1565b148061084f57506002600354600160a01b900460ff166005811115610826576108266120f1565b14801561084f575060095460075460085461084191906120de565b61084b91906120de565b4210155b61089b5760405162461bcd60e51b815260206004820152601860248201527f526566756e64206e6f7420617661696c61626c652079657400000000000000006044820152606401610775565b6003805460ff60a01b1916600560a01b179055475f6108b8611051565b6001600160a01b0316826040515f6040518083038185875af1925050503d805f81146108ff576040519150601f19603f3d011682016040523d82523d5f602084013e610904565b606091505b50509050806109475760405162461bcd60e51b815260206004820152600f60248201526e151c985b9cd9995c8819985a5b1959608a1b6044820152606401610775565b6005600d5460ff166005811115610960576109606120f1565b6040515f80516020612737833981519152905f90a360405182815233907fd7dee2702d63ad89917b6a4da9981c90c4d24f8c2bdfd64c604ecae57d8d06519060200160405180910390a26109b2611570565b50505f805460ff19169055565b5f5460ff16156109e15760405162461bcd60e51b81526004016107759061250f565b5f805460ff19166001179055600380600354600160a01b900460ff166005811115610a0e57610a0e6120f1565b14610a2b5760405162461bcd60e51b815260040161077590612546565b6004546001600160a01b0316331480610a5c5750610a47611051565b6001600160a01b0316336001600160a01b0316145b610a975760405162461bcd60e51b815260206004820152600c60248201526b155b985d5d1a1bdc9a5e995960a21b6044820152606401610775565b6003805460ff60a01b1916600160a21b17905560045460405147915f916001600160a01b039091169083908381818185875af1925050503d805f8114610af8576040519150601f19603f3d011682016040523d82523d5f602084013e610afd565b606091505b5050905080610b405760405162461bcd60e51b815260206004820152600f60248201526e151c985b9cd9995c8819985a5b1959608a1b6044820152606401610775565b600460036040515f80516020612737833981519152905f90a3610b61611570565b50505f805460ff1916905550565b5f5460ff1615610b915760405162461bcd60e51b81526004016107759061250f565b5f805460ff191660011781556040516370a0823160e01b81523060048201526001600160a01b038416906370a0823190602401602060405180830381865afa158015610bdf573d5f803e3d5ffd5b505050506040513d601f19601f82011682018060405250810190610c03919061257d565b9050610c1a6001600160a01b038416333085611824565b6040516370a0823160e01b81523060048201525f906001600160a01b038516906370a0823190602401602060405180830381865afa158015610c5e573d5f803e3d5ffd5b505050506040513d601f19601f82011682018060405250810190610c82919061257d565b90505f610c8f8383612594565b11610cd15760405162461bcd60e51b8152602060048201526012602482015271139bc81d1bdad95b9cc81c9958d95a5d995960721b6044820152606401610775565b50505f805460ff191690555050565b610ce86115cc565b610cf15f611860565b565b84421115610d365760405162461bcd60e51b815260206004820152601060248201526f4578706972656420646561646c696e6560801b6044820152606401610775565b600c54604080517fb471be090acf24b5a067bff5ab5697632de177616b7ebfab8b478d265ec5f35560208201526001600160a01b038916918101919091526060810191909152608081018690525f9060a0016040516020818303038152906040528051906020012090505f610daa826118d0565b90505f610dee87878080601f0160208091040260200160405190810160405280939291908181526020018383808284375f9201919091525086939250506118fc9050565b90505f610e3286868080601f0160208091040260200160405190810160405280939291908181526020018383808284375f9201919091525087939250506118fc9050565b9050610e3c611051565b6001600160a01b0316826001600160a01b031614610e9c5760405162461bcd60e51b815260206004820152601760248201527f496e76616c6964206f776e6572207369676e61747572650000000000000000006044820152606401610775565b6005546001600160a01b03828116911614610ef95760405162461bcd60e51b815260206004820152601a60248201527f496e76616c696420677561726469616e207369676e61747572650000000000006044820152606401610775565b600c8054905f610f08836125a7565b9190505550610f168a611860565b50505050505050505050565b662386f26fc100003414610f6e5760405162461bcd60e51b815260206004820152601360248201527209aeae6e840e6e8c2d6ca40605c6062408aa89606b1b6044820152606401610775565b42600a5410610fb55760405162461bcd60e51b8152602060048201526013602482015272105b1c9958591e481c5d585c985b9d1a5b9959606a1b6044820152606401610775565b600b80546001600160a01b03191633179055610fd34261a8c06120de565b600a81905560405190815233907f44ea6442f4478b031601846160c21470501ea4455f8ffaef50f4c5d091fc9d4c9060200160405180910390a2565b5f6060805f805f6060611020611924565b6110286119f7565b604080515f80825260208201909252600f60f81b9b939a50919850469750309650945092509050565b7f9016d09d72d40fdae2fd8ceac6b6234c7706214fd39c1cd1e609a0528c199300546001600160a01b031690565b5f8281526001602090815260408083206001600160a01b038516845290915290205460ff165b92915050565b600280600354600160a01b900460ff1660058111156110cc576110cc6120f1565b146110e95760405162461bcd60e51b815260040161077590612546565b600654604080516020810185905201604051602081830303815290604052805190602001201461114c5760405162461bcd60e51b815260206004820152600e60248201526d125b9d985b1a59081cd958dc995d60921b6044820152606401610775565b60075460085461115c91906120de565b4210156111a25760405162461bcd60e51b81526020600482015260146024820152732637b1b5903832b934b7b2103737ba1037bb32b960611b6044820152606401610775565b6003805460ff60a01b1916600360a01b1790556040805183815290517f9b7ddc883342824bd7ddbff103e7a69f8f2e60b96c075cd1b8b8b9713ecc75a49181900360200190a1600360026040515f80516020612737833981519152905f90a35050565b5f61120e611a48565b805490915060ff600160401b820416159067ffffffffffffffff165f811580156112355750825b90505f8267ffffffffffffffff1660011480156112515750303b155b90508115801561125f575080155b1561127d5760405163f92ee8a960e01b815260040160405180910390fd5b845467ffffffffffffffff1916600117855583156112a757845460ff60401b1916600160401b1785555b6112b08a611a70565b6112f66040518060400160405280600b81526020016a14d958dd5c9955985d5b1d60aa1b815250604051806040016040528060018152602001603160f81b815250611a81565b600580546001600160a01b038b81166001600160a01b03199283161790925560048054928b169290911691909117905560068790556007869055620151806009556003805460ff60a01b1916905561136e7f55435dd261a4b9b3364963f7738a7a662ad9c84396d64be3365284bb7f0a50418a611a93565b6113987f8395ada023be9e2c3c970f93fc5f0fa42f5103355a7e14885e0e3f79beea3fe489611a93565b8315610f1657845460ff60401b19168555604051600181527fc7f505b2f371ae2175ee4913f4499e1f2633a7b5936321eed1cdaeb6115181d29060200160405180910390a150505050505050505050565b5f80600354600160a01b900460ff166005811115611409576114096120f1565b146114265760405162461bcd60e51b815260040161077590612546565b5f341161146a5760405162461bcd60e51b81526020600482015260126024820152710416d6f756e74206d757374206265203e20360741b6044820152606401610775565b60038054600160a01b60ff60a01b1990911617905560405134815233907f2da466a7b24304f47e87fa2e1e5a81b9831ce54fec19055ce277ca2f39ba42c49060200160405180910390a260015f5b6040515f80516020612737833981519152905f90a350565b6114d86115cc565b6001600160a01b03811661150157604051631e4fbdf760e01b81525f6004820152602401610775565b61071681611860565b6115126115cc565b600180600354600160a01b900460ff166005811115611533576115336120f1565b146115505760405162461bcd60e51b815260040161077590612546565b6003805460ff60a01b1916600160a11b17905542600855600260016114b8565b6004600354600160a01b900460ff166005811115611590576115906120f1565b14806115b957506005600354600160a01b900460ff1660058111156115b7576115b76120f1565b145b15610cf1574715610cf157610cf16125bf565b336115d5611051565b6001600160a01b031614610cf15760405163118cdaa760e01b8152336004820152602401610775565b61160b6202a300426120de565b6002819055600380546001600160a01b0319166001600160a01b038416908117909155604051918252907fe1009627653eb47f7d0f3b4435749f7984a803c21f84a076cc4dcb0412cf066f9060200160405180910390a250565b306001600160a01b037f00000000000000000000000000000000000000000000000000000000000000001614806116eb57507f00000000000000000000000000000000000000000000000000000000000000006001600160a01b03166116df5f80516020612717833981519152546001600160a01b031690565b6001600160a01b031614155b15610cf15760405163703e46dd60e11b815260040160405180910390fd5b6117116115cc565b61071681611aef565b816001600160a01b03166352d1902d6040518163ffffffff1660e01b8152600401602060405180830381865afa925050508015611774575060408051601f3d908101601f191682019092526117719181019061257d565b60015b61179c57604051634c9c8ce360e01b81526001600160a01b0383166004820152602401610775565b5f8051602061271783398151915281146117cc57604051632a87526960e21b815260048101829052602401610775565b6117d68383611b9e565b505050565b306001600160a01b037f00000000000000000000000000000000000000000000000000000000000000001614610cf15760405163703e46dd60e11b815260040160405180910390fd5b611832848484846001611bf3565b61185a57604051635274afe760e01b81526001600160a01b0385166004820152602401610775565b50505050565b7f9016d09d72d40fdae2fd8ceac6b6234c7706214fd39c1cd1e609a0528c19930080546001600160a01b031981166001600160a01b03848116918217845560405192169182907f8be0079c531659141344cd1fd0a4f28419497f9722a3daafe3b4186f6b6457e0905f90a3505050565b5f6110a56118dc611c60565b8360405161190160f01b8152600281019290925260228201526042902090565b5f805f8061190a8686611c6e565b92509250925061191a8282611cb7565b5090949350505050565b7fa16a46d94261c7517cc8ff89f61c0ce93598e3c849801011dee649a6a557d10280546060917fa16a46d94261c7517cc8ff89f61c0ce93598e3c849801011dee649a6a557d10091611975906125d3565b80601f01602080910402602001604051908101604052809291908181526020018280546119a1906125d3565b80156119ec5780601f106119c3576101008083540402835291602001916119ec565b820191905f5260205f20905b8154815290600101906020018083116119cf57829003601f168201915b505050505091505090565b7fa16a46d94261c7517cc8ff89f61c0ce93598e3c849801011dee649a6a557d10380546060917fa16a46d94261c7517cc8ff89f61c0ce93598e3c849801011dee649a6a557d10091611975906125d3565b5f807ff0c57e16840df040f15088dc2f81fe391c3923bec73e23a9662efc9c229c6a006110a5565b611a78611d6f565b61071681611d94565b611a89611d6f565b6107348282611d9c565b5f8281526001602081815260408084206001600160a01b0386168086529252808420805460ff19169093179092559051909184917f2ae6a113c0ed5b78a53413ffbb7679881f11145ccfba4fb92e863dfcd5a1d2f39190a35050565b6003546001600160a01b03828116911614611b4c5760405162461bcd60e51b815260206004820152601860248201527f556e7472757374656420696d706c656d656e746174696f6e00000000000000006044820152606401610775565b6002544210156107165760405162461bcd60e51b815260206004820152601c60248201527f557067726164652074696d656c6f636b206e6f742065787069726564000000006044820152606401610775565b611ba782611dff565b6040516001600160a01b038316907fbc7cd75a20ee27fd9adebab32041f755214dbc6bffa90cc0225b39da2e5c2d3b905f90a2805115611beb576117d68282611e62565b610734611f02565b6040516323b872dd60e01b5f8181526001600160a01b038781166004528616602452604485905291602083606481808c5af1925060015f51148316611c4f578383151615611c43573d5f823e3d81fd5b5f883b113d1516831692505b604052505f60605295945050505050565b5f611c69611f21565b905090565b5f805f8351604103611ca5576020840151604085015160608601515f1a611c9788828585611f94565b955095509550505050611cb0565b505081515f91506002905b9250925092565b5f826003811115611cca57611cca6120f1565b03611cd3575050565b6001826003811115611ce757611ce76120f1565b03611d055760405163f645eedf60e01b815260040160405180910390fd5b6002826003811115611d1957611d196120f1565b03611d3a5760405163fce698f760e01b815260048101829052602401610775565b6003826003811115611d4e57611d4e6120f1565b03610734576040516335e2f38360e21b815260048101829052602401610775565b611d7761205c565b610cf157604051631afcd79f60e31b815260040160405180910390fd5b6114d8611d6f565b611da4611d6f565b7fa16a46d94261c7517cc8ff89f61c0ce93598e3c849801011dee649a6a557d1007fa16a46d94261c7517cc8ff89f61c0ce93598e3c849801011dee649a6a557d102611df08482612656565b506003810161185a8382612656565b806001600160a01b03163b5f03611e3457604051634c9c8ce360e01b81526001600160a01b0382166004820152602401610775565b5f8051602061271783398151915280546001600160a01b0319166001600160a01b0392909216919091179055565b60605f611e6f8484612075565b9050808015611e9057505f3d1180611e9057505f846001600160a01b03163b115b15611ea557611e9d612088565b9150506110a5565b8015611ecf57604051639996b31560e01b81526001600160a01b0385166004820152602401610775565b3d15611ee257611edd6120a1565b611efb565b60405163d6bda27560e01b815260040160405180910390fd5b5092915050565b3415610cf15760405163b398979f60e01b815260040160405180910390fd5b5f7f8b73c3c69bb8fe3d512ecc4cf759cc79239f7b179b0ffacaa9a75d522b39400f611f4b6120ac565b611f536120c1565b60408051602081019490945283019190915260608201524660808201523060a082015260c00160405160208183030381529060405280519060200120905090565b5f80807f7fffffffffffffffffffffffffffffff5d576e7357a4501ddfe92f46681b20a0841115611fcd57505f91506003905082612052565b604080515f808252602082018084528a905260ff891692820192909252606081018790526080810186905260019060a0016020604051602081039080840390855afa15801561201e573d5f803e3d5ffd5b5050604051601f1901519150506001600160a01b03811661204957505f925060019150829050612052565b92505f91508190505b9450945094915050565b5f612065611a48565b54600160401b900460ff16919050565b5f805f835160208501865af49392505050565b6040513d81523d5f602083013e3d602001810160405290565b6040513d5f823e3d81fd5b5f6120b5611924565b80519060200120905090565b5f6120b56119f7565b634e487b7160e01b5f52601160045260245ffd5b808201808211156110a5576110a56120ca565b634e487b7160e01b5f52602160045260245ffd5b602081016006831061212557634e487b7160e01b5f52602160045260245ffd5b91905290565b80356001600160a01b0381168114612141575f80fd5b919050565b5f60208284031215612156575f80fd5b61215f8261212b565b9392505050565b5f8083601f840112612176575f80fd5b50813567ffffffffffffffff81111561218d575f80fd5b6020830191508360208285010111156121a4575f80fd5b9250929050565b5f805f805f608086880312156121bf575f80fd5b6121c88661212b565b94506121d66020870161212b565b935060408601359250606086013567ffffffffffffffff8111156121f8575f80fd5b61220488828901612166565b969995985093965092949392505050565b634e487b7160e01b5f52604160045260245ffd5b5f806040838503121561223a575f80fd5b6122438361212b565b9150602083013567ffffffffffffffff8082111561225f575f80fd5b818501915085601f830112612272575f80fd5b81358181111561228457612284612215565b604051601f8201601f19908116603f011681019083821181831017156122ac576122ac612215565b816040528281528860208487010111156122c4575f80fd5b826020860160208301375f6020848301015280955050505050509250929050565b5f80604083850312156122f6575f80fd5b6122ff8361212b565b946020939093013593505050565b5f805f805f8060808789031215612322575f80fd5b61232b8761212b565b955060208701359450604087013567ffffffffffffffff8082111561234e575f80fd5b61235a8a838b01612166565b90965094506060890135915080821115612372575f80fd5b5061237f89828a01612166565b979a9699509497509295939492505050565b5f81518084525f5b818110156123b557602081850181015186830182015201612399565b505f602082860101526020601f19601f83011685010191505092915050565b60ff60f81b881681525f602060e060208401526123f460e084018a612391565b8381036040850152612406818a612391565b606085018990526001600160a01b038816608086015260a0850187905284810360c0860152855180825260208088019350909101905f5b818110156124595783518352928401929184019160010161243d565b50909c9b505050505050505050505050565b5f806040838503121561247c575f80fd5b8235915061248c6020840161212b565b90509250929050565b5f602082840312156124a5575f80fd5b5035919050565b5f805f805f60a086880312156124c0575f80fd5b6124c98661212b565b94506124d76020870161212b565b93506124e56040870161212b565b94979396509394606081013594506080013592915050565b602081525f61215f6020830184612391565b6020808252601f908201527f5265656e7472616e637947756172643a207265656e7472616e742063616c6c00604082015260600190565b6020808252601b908201527f496e76616c696420737461746520666f72206f7065726174696f6e0000000000604082015260600190565b5f6020828403121561258d575f80fd5b5051919050565b818103818111156110a5576110a56120ca565b5f600182016125b8576125b86120ca565b5060010190565b634e487b7160e01b5f52600160045260245ffd5b600181811c908216806125e757607f821691505b60208210810361260557634e487b7160e01b5f52602260045260245ffd5b50919050565b601f8211156117d657805f5260205f20601f840160051c810160208510156126305750805b601f840160051c820191505b8181101561264f575f815560010161263c565b5050505050565b815167ffffffffffffffff81111561267057612670612215565b6126848161267e84546125d3565b8461260b565b602080601f8311600181146126b7575f84156126a05750858301515b5f19600386901b1c1916600185901b17855561270e565b5f85815260208120601f198616915b828110156126e5578886015182559484019460019091019084016126c6565b508582101561270257878501515f19600388901b60f8161c191681555b505060018460011b0185555b50505050505056fe360894a13ba1a3210667c828492db98dca3e2076cc3735a920a3ca505d382bbce8a97ea87e4388fa22d496b95a8ed5ced6717f49790318de2b928aaf37a021d8a2646970667358221220844242fc2d4741adbf22eb727cf3cced10cc136c99a55a3245be154d28a40cbd64736f6c63430008180033",
  "linkReferences": {},
  "deployedLinkReferences": {}
}